:020000040000FA
:020000001928BD
:100008007E1480310B1F09280A2817282100111C8B
:100018000E280F2817282000111C13281428172829
:100028008031E02080317E1009001A28F001F101AA
:10003800F201F301F4017E1020006328FB007B0825
:100048007406031D282829284628622822008C10B7
:100058000C117208013EF0000030733DF1005D287C
:1000680022008C140C115D2822008C100C157208CB
:100078001E3EF0000030733DF1005D2822008C1018
:100088000C115D287B082000A000A1012108003A7E
:1000980003194F285D282008013A03192A28033A32
:1000A80003193428013A03193828073A0319422852
:1000B8005D287B082000A0002008F400080080319B
:1000C800D32080318B170B17C4302000A0000030DC
:1000D800A10081310021803181310A218031013034
:1000E80080312220803120000C1E7B287C287F282C
:1000F80022000C15772822000C11772819282000D7
:10010800990186309700E830960011101708F8001A
:100118001608F700210011140D302000A00001304E
:10012800A100813100218031C130200098000800F1
:1001380022008C01393021008C00073023008C000C
:1001480024008C012100951725008C0137302600EA
:100158008C003F3027008C0022009D010800200001
:10016800181DB728B828BF2818107A0897007908EA
:1001780096001814C3287A08970079089600080092
:100188000130F2070030F33D20008C1ECC28CD282A
:10019800D02822008C14D22822008C10080080312C
:1001A8009C2080318031F9208031813106218031D5
:1001B8008031832080310800200011107808FA006F
:1001C8007708F9008031B32080318031ED2080310B
:1001D8000800750876040319F228F328F828760829
:1001E8008A0075080A008031080002302100990051
:1001F800980122009601080020002108F600200836
:10020800F500080016302100970008002000181497
:0402180008000800D2
:020000040001F9
:04000E00E43FFF1EAE
:00000001FF
