:020000040000FA
:020000002628B0
:100008007E1480318B1D09280A2812280B1C0D2804
:100018000E28122881317621803124280B1F1528BB
:10002800162824282100111C1A281B2824282000FF
:10003800111C1F282028242881314221803124289E
:100048007E1009002728F001F101F201F301F40103
:100058007E1020002F288131352180318B170B1716
:100068006930F7000130F800813163218031813136
:100078007221803101308031AC20803194288C1E6F
:1000880046284728562871087302031D4D28700812
:100098007202031C50285128562802308031AC20A7
:1000A800803194280C1E59285A289428033080310E
:1000B800AC20803194280C1A622863286D287108B6
:1000C8007302031D692870087202031C6C286D28CE
:1000D800942803308031AC20803194288C1E7528F8
:1000E80076287B2802308031AC2080319428710832
:1000F8007302031D812870087202031C8428852856
:10010800942804308031AC2080319428270091163F
:1001180063002700911201308031AC20803194288F
:1001280074082000A200A3012308003A03199D289F
:1001380094282208013A03194328033A03195F282F
:10014800013A03197228073A03198A28942826289D
:10015800F90079087406031DB228B328B428F328D7
:10016800F201F301D92822008C100C117208013E0B
:10017800F0000030733DF100EF2822008C140C11C0
:100188007208B03EF0000430733DF100EF28220001
:100198008C100C1572080A3EF0000030733DF10017
:1001A800EF2822008C100C11EF287908F700F801CD
:1001B8007808003A0319E128EF287708013A03196B
:1001C800B728033A0319C128013A0319CB28073A7B
:1001D8000319D528EF287908F7007708F4000800F4
:1001E8002000990186309700E83096001110170812
:1001F800FB001608FA00210011147530F7000130D1
:10020800F8008131632180314130200098000800D6
:1002180022008C01393021008C00073023008C002B
:1002280024008C012100951725008C013730260009
:100238008C003F3027008C0022009D018B150800A0
:100248002000181D28292929302918107608970018
:1002580075089600181434297608970075089600D2
:10026800080081310C21813181315C21813181315A
:100278006E2181318031F420813108002000111075
:100288007B08F6007A08F50081312421813181311B
:100298004F21813108002000200821040319552925
:1002A80056295B2921088A0020080A0081310800A4
:1002B8000230210099009801220096010800780870
:1002C8002000A1007708A00008000130F2070030E4
:1002D800F33D08001630210097000800200018148C
:0602E800080008000800F8
:020000040001F9
:04000E00643FFF1E2E
:00000001FF
