:020000040000FA
:020000001928BD
:100008007E1480310B1F09280A2817282100111C8B
:100018000E280F2817282000111C13281428172829
:100028008131272180317E1009001A28F001F10161
:10003800F201F301F4017E102000222881311A21F7
:1000480080318B170B174E30F7000130F8008131E3
:10005800482180318131572180310130803192200F
:1000680080317A288C1E39283A287A287108730238
:10007800031D402870087202031C432844287A286C
:1000880002308031922080317A2871087302031D72
:100098004F2870087202031C52285328582804302D
:1000A8008031922080317A280C1E5B285C287A28BF
:1000B80003308031922080317A288C1E642865288C
:1000C8006A2802308031922080317A2871087302C0
:1000D800031D702870087202031C732874287A287C
:1000E80004308031922080317A28792874082000E1
:1000F800A200A3012308003A031983287A282208BA
:10010800013A03193628033A03194928013A031911
:100118006128073A031979287A281928F9007908F3
:100128007406031D982899289A28D928F201F30102
:10013800BF2822008C100C117208013EF00000301C
:10014800733DF100D52822008C140C1172083C3E36
:10015800F0000030733DF100D52822008C100C15FA
:1001680072080A3EF0000030733DF100D5282200E5
:100178008C100C11D5287908F700F8017808003A96
:100188000319C728D5287708013A03199D28033A87
:100198000319A728013A0319B128073A0319BB28FC
:1001A800D5287908F7007708F4000800200099019D
:1001B80086309700E830960011101708FB001608E3
:1001C800FA00210011145A30F7000130F80081318B
:1001D80048218031413020009800080022008C011D
:1001E800393021008C00073023008C0024008C015A
:1001F8002100951725008C01373026008C003F30F0
:1002080027008C0022009D0108002000181D0D29E0
:100218000E291529181076089700750896001814E5
:100228001929760897007508960008008031F22091
:1002380081318131412181318131532181318031B5
:10024800DA2081310800200011107B08F6007A08B6
:10025800F500813109218131813134218131080052
:1002680020002008210403193A293B2940292108A4
:100278008A0020080A008131080002302100990014
:10028800980122009601080078082000A10077084C
:10029800A00008000130F2070030F33D08001630D6
:0E02A80021009700080020001814080008002C
:020000040001F9
:04000E00E43FFF1EAE
:00000001FF
