:020000040000FA
:020000002628B0
:100008007E1480318B1D09280A2812280B1C0D2804
:100018000E28122881318A21803124280B1F1528A7
:10002800162824282100111C1A281B2824282000FF
:10003800111C1F2820282428813170218031242870
:100048007E1009002728F001F101F201F301F40103
:100058002000A401A5017E10200032288131512101
:100068008031AD30F7000130F8008131A1218031B5
:100078008B170B178131B921803101308031B720BE
:1000880080319F288C1E49284A28622871087302EB
:10009800031D502870087202031C5328542859283D
:1000A80002308031B72080319F280C1E5C285D28E3
:1000B8009F2803308031B72080319F280430803159
:1000C800B72080319F280C1A6A286B287528710878
:1000D8007302031D712870087202031C74287528A6
:1000E8009F2803308031B72080319F288C1E7D28BF
:1000F8007E28832802308031B72080319F287108FC
:100108007302031D892870087202031C8C288D282D
:100118009F2804308031B72080319F288131B62153
:100128008031630000008131B92180310130803194
:10013800B72080319F2874082000A600A70127084F
:10014800003A0319A8289F282608013A03194628C7
:10015800033A03196728013A03197A28073A031959
:1001680092289F282628F90079087406031DBD28BF
:10017800BE28BF280429F201F301EA2822008C10C6
:100188000C11F201F3017208013EF0000030733DDA
:10019800F100002922008C140C11F201F3017208FD
:1001A800B03EF0000430733DF100002922008C10AD
:1001B8000C15F201F30172080A3EF0000030733D9D
:1001C800F100002922008C100C1100297908F70091
:1001D800F8017808003A0319F22800297708013A4B
:1001E8000319C228033A0319CE28013A0319DA2859
:1001F800073A0319E62800297908F7007708F40078
:10020800080022008C01393021008C0001302300C5
:100218008C0024008C012100951725008C013730B3
:1002280026008C003F3027008C0022009D0127000B
:10023800931292129116BD30F7000130F800813107
:10024800A72181318B15080020009901863097007D
:10025800E830960011101708FB001608FA00210074
:100268001114BC30F7000130F8008131A12181312F
:1002780041302000980008002000181D4429452915
:100288004C291810760897007508960018145029FC
:10029800760897007508960008008131052181319C
:1002A8008131932181318131B221813181319A218A
:1002B800813181312821813108002000220823045E
:1002C8000319672968296D2923088A0022080A006A
:1002D8008131270093120800200011107B08F600D6
:1002E8007A08F50081314021813181317D218131C8
:1002F800080020002008210403198329842989295A
:1003080021088A0020080A00813108002700931E6E
:100318008E298F299229813161218131080002308B
:1003280021009900980122009601080021009E01F1
:100338009F019B019C019D01080078082000A100F5
:100348007708A000080078082000A3007708A2001A
:1003580008000130F2070030F33D08001630210094
:100368009700080020001810080020001814080042
:040378000800080071
:020000040001F9
:04000E00643FFF1E2E
:00000001FF
