:020000040000FA
:020000001928BD
:100008007E1480310B1F09280A2817282100111C8B
:100018000E280F2817282000111C13281428172829
:100028008131242180317E1009001A28F001F10164
:10003800F201F301F4017E102000222881311721FA
:1000480080318B170B170630F7000130F80081312B
:100058004521803181314F21803101308031872025
:10006800803162288C1E39283A2879287108730251
:10007800031D402870087202031C4328442879286D
:10008800023080318720803179280C1E4C284D2879
:1000980079280330803187208031792871087302EC
:1000A800031D582870087202031C5B285C287928F5
:1000B8000430803187208031792861287408200035
:1000C800A200A3012308003A03196B287928220803
:1000D800013A03193628033A03194928013A031942
:1000E8005228073A031961287928031022008C1C2A
:1000F800031403188028832822008C1485282200E2
:100108008C1062281928F90079087406031D8D28B7
:100118008E28AB28C52822008C100C117208013ECD
:10012800F0000030733DF100C12822008C140C113E
:10013800C12822008C100C1572081E3EF0000030F9
:10014800733DF100C12822008C100C11C1287908D8
:10015800F700F8017808003A0319B328C12877088E
:10016800013A03198F28033A03199928013A031908
:100178009D28073A0319A728C1287908F7007708A6
:10018800F40008002000990186309700E8309600B6
:1001980011101708FB001608FA002100111452303C
:1001A800F7000130F800813145218031C13020004D
:1001B8009800080022008C01393021008C0007309B
:1001C80023008C0024008C012100951725008C0148
:1001D800373026008C003F3027008C0022009D011C
:1001E80008002000181DF928FA2801291810760897
:1001F8009700750896001814052976089700750861
:10020800960008000130F2070030F33D0310220089
:100218000C1D031403181129142922000C15162982
:1002280022000C1108008031DE20813181313E210D
:10023800813181314B2181318031C62081310800E3
:10024800200011107B08F6007A08F5008031F520AF
:1002580081318131312181310800200020082104B9
:100268000319372938293D2921088A0020080A005E
:10027800813108000230210099009801220096017E
:10028800080078082000A1007708A00008001630B0
:0E02980021009700080020001814080008003C
:020000040001F9
:04000E00E4FFFFFE0E
:00000001FF
