:020000040000FA
:020000001928BD
:100008007E1480310B1F09280A2817282100111C8B
:100018000E280F2817282000111C13281428172829
:100028008131052180317E1009001A28F001F10183
:10003800F201F301F4017E10200022288031F8201B
:1000480080312B30F7000130F80081311F218031D9
:100058008B17013080317920803161288C1E35283A
:100068003628612871087302031D3C287008720243
:10007800031C3F28402861280230803179208031D4
:1000880061280C1E482849286128033080317920CE
:100098008031612871087302031D542870087202A8
:1000A800031C572858286128043080317920803172
:1000B800612822008C100C11612874082000A2000D
:1000C800A3012308003A03196A2861282208013A83
:1000D80003193228033A03194528013A03194E280F
:1000E800073A03195D2861281928F9007908740668
:1000F800031D7F2880289D28B72822008C100C110A
:100108007208013EF0000030733DF100B328220070
:100118008C140C11B32822008C100C1572081E3E8A
:10012800F0000030733DF100B32822008C100C1150
:10013800B3287908F700F8017808003A0319A528C8
:10014800B3287708013A03198128033A03198B2841
:10015800013A03198F28073A03199928B32879080F
:10016800F7007708F400080020009901863097000E
:10017800E830960011101708FB001608FA00210055
:1001880011143430F7000130F80081311F2180311B
:10019800C13020009800080022008C01393021006D
:1001A8008C00073023008C0024008C012100951757
:1001B80025008C01373026008C003F3027008C004A
:1001C80022009D0108002000181DEB28EC28F328C8
:1001D800181076089700750896001814F7287608FE
:1001E80097007508960008008031D0208031813151
:1001F800252180318131302180318031B820803112
:100208000800200011107B08F6007A08F5008031FC
:10021800E720813181311221813108002000200836
:1002280021040319182919291E2921088A002008E0
:100238000A008131080078082000A1007708A00092
:100248000800210099019801220096010800013058
:10025800F2070030F33D080016302100970008002F
:0202680008008C
:020000040001F9
:04000E00E43FFF3E8E
:00000001FF
