:020000040000FA
:020000001928BD
:100008007E1480310B1F09280A2817282100111C8B
:100018000E280F2817282000111C13281428172829
:100028008131222180317E1009001A28F001F10166
:10003800F201F301F4017E102000222881311521FC
:1000480080318B170B174930F7000130F8008131E8
:1000580043218031813152218031013080318D201E
:10006800803175288C1E39283A2875287108730242
:10007800031D402870087202031C43284428752871
:10008800023080318D20803175280C1A4C284D287B
:10009800572871087302031D532870087202031C45
:1000A800562857287528033080318D2080317528CF
:1000B8008C1E5F2860286528023080318D208031B1
:1000C800752871087302031D6B2870087202031CDF
:1000D8006E286F287528043080318D20803175286E
:1000E800742874082000A200A3012308003A031909
:1000F8007E2875282208013A03193628033A03197D
:100108004928013A03195C28073A03197428752805
:100118001928F90079087406031D9328942895284E
:10012800D428F201F301BA2822008C100C117208AD
:10013800013EF0000030733DF100D02822008C14FD
:100148000C1172083C3EF0000030733DF100D028DD
:1001580022008C100C1572080A3EF0000030733D26
:10016800F100D02822008C100C11D0287908F70053
:10017800F8017808003A0319C228D0287708013A0C
:1001880003199828033A0319A228013A0319AC283D
:10019800073A0319B628D0287908F7007708F40039
:1001A80008002000990186309700E8309600111069
:1001B8001708FB001608FA00210011145530F70043
:1001C8000130F8008131432180314130200098000E
:1001D800080022008C01393021008C0007302300F0
:1001E8008C0024008C012100951725008C013730E4
:1001F80026008C003F3027008C0022009D0108005B
:100208002000181D082909291029181076089700B8
:100218007508960018141429760897007508960032
:1002280008008031ED20813181313C2181318131DB
:100238004E2181318031D5208131080020001110F4
:100248007B08F6007A08F50081310421813181317B
:100258002F218131080020002008210403193529A5
:1002680036293B2921088A0020080A008131080024
:1002780002302100990098012200960108007808B0
:100288002000A1007708A00008000130F207003024
:10029800F33D0800163021009700080020001814CC
:0402A8000800080042
:020000040001F9
:04000E00E43FFF1EAE
:00000001FF
