:020000040000FA
:020000001928BD
:100008007E1480310B1F09280A2817282100111C8B
:100018000E280F2817282000111C13281428172829
:1000280081312B2180317E1009001A28F001F1015D
:10003800F201F301F4017E102000222881311E21F3
:1000480080318B170B175230F7000130F8008131DF
:100058004C21803181315B21803101308031962003
:1000680080317E288C1E39283A2849287108730265
:10007800031D402870087202031C4328442849289D
:1000880002308031962080317E280C1E4C284D2865
:100098007E2803308031962080317E280C1A55281E
:1000A8005628602871087302031D5C2870087202C4
:1000B800031C5F2860287E28033080319620803119
:1000C8007E288C1E682869286E2802308031962088
:1000D80080317E2871087302031D7428700872022B
:1000E800031C772878287E280430803196208031B8
:1000F8007E287D2874082000A200A3012308003A66
:10010800031987287E282208013A03193628033A5A
:1001180003195228013A03196528073A03197D285B
:100128007E281928F90079087406031D9C289D2843
:100138009E28DD28F201F301C32822008C100C113F
:100148007208013EF0000030733DF100D92822000A
:100158008C140C117208B03EF0000430733DF100AD
:10016800D92822008C100C1572080A3EF0000030C5
:10017800733DF100D92822008C100C11D928790878
:10018800F700F8017808003A0319CB28D92877082E
:10019800013A0319A128033A0319AB28013A0319B4
:1001A800B528073A0319BF28D9287908F70077082E
:1001B800F40008002000990186309700E830960086
:1001C80011101708FB001608FA00210011145E3000
:1001D800F7000130F80081314C2180314130200096
:1001E8009800080022008C01393021008C0007306B
:1001F80023008C0024008C012100951725008C0118
:10020800373026008C003F3027008C0022009D01EB
:1002180008002000181D112912291929181076081C
:1002280097007508960018141D2976089700750818
:10023800960008008031F6208131813145218131D5
:100248008131572181318031DE2081310800200041
:1002580011107B08F6007A08F50081310D218131F3
:100268008131382181310800200020082104031938
:100278003E293F29442921088A0020080A008131A3
:100288000800023021009900980122009601080018
:1002980078082000A1007708A00008000130F207C4
:1002A8000030F33D080016302100970008002000B8
:0602B80018140800080004
:020000040001F9
:04000E00E43FFF1EAE
:00000001FF
