:020000040000FA
:020000001928BD
:100008007E1480310B1F09280A2817282100111C8B
:100018000E280F2817282000111C13281428172829
:100028008031E42080317E1009001A28F001F101A6
:10003800F201F301F4017E1020006328FB007B0825
:100048007406031D282829284628622822008C10B7
:100058000C117208013EF0000030733DF1005D287C
:1000680022008C140C115D2822008C100C157208CB
:100078001E3EF0000030733DF1005D2822008C1018
:100088000C115D287B082000A000A1012108003A7E
:1000980003194F285D282008013A03192A28033A32
:1000A80003193428013A03193828073A0319422852
:1000B8005D287B082000A0002008F400080080319B
:1000C800D72080318B170B17C6302000A0000030D6
:1000D800A10081310421803181310E21803101302C
:1000E800803122208031031022000C1D03140318D4
:1000F8007E28812822000C15832822000C117728DD
:1001080019282000990186309700E83096001110D0
:100118001708F8001608F700210011141130200004
:10012800A0000130A100813104218031C1302000BC
:100138009800080022008C01393021008C0007301B
:1001480023008C0024008C012100951725008C01C8
:10015800373026008C003F3027008C0022009D019C
:1001680008002000181DB928BA28C12818107A08D4
:100178009700790896001814C5287A089700790816
:10018800960008000130F2070030F33D031022000A
:100198000C1D03140318D128D42822000C15D628C6
:1001A80022000C11080080319E2080318031FD2012
:1001B800803181310A2180318031852080310800E9
:1001C800200011107808FA007708F9008031B5206E
:1001D80080318031F12080310800750876040319D8
:1001E800F628F728FC2876088A0075080A00803166
:1001F80008000230210099009801220096010800A9
:1002080020002108F6002008F5000800163021001B
:0C021800970008002000181408000800DF
:020000040001F9
:04000E00E4FFFFDE2E
:00000001FF
