:020000040000FA
:020000002628B0
:100008007E1480318B1D09280A2812280B1C0D2804
:100018000E28122882319A22803124280B1F152895
:10002800162824282100111C1A281B2824282000FF
:10003800111C1F2820282428823177228031242867
:100048007E10090027282000AA01AB01AC01AD01F0
:10005800AE01AF01B0017E10200032288231442267
:100068008031BC30F2000230F3008231AA228031A4
:100078008B170B178231B6228031003A03194528B5
:1000880046283E288231CD228031013081316421D9
:1000980080311F3082312D22803173082000A70063
:1000A8007208A6002708F3002608F2000030F400C2
:1000B8002030F5008131B721803172082000A4007A
:1000C8007308A5000A30A435A50D890B67282408F4
:1000D800A8002508A9000830F2000030F30029081C
:1000E800F5002808F40081310421803173082000CC
:1000F800A9007208A8002908803AA40089302402BF
:10010800031D8828C430280203188B288C288F28C0
:1001180022000C14EB2822000C10EB288C1E9528CA
:100128009628AE282B082D02031D9C282A082C028D
:10013800031C9F28A028A528023081316421803122
:100148004D280C1EA828A9280229033081316421D2
:1001580080314D2804308131642180314D280C1ABA
:10016800B628B728C1282B082D02031DBD282A0848
:100178002C02031CC028C1284D280330813164217A
:1001880080314D288C1EC928CA28CF2802308131D9
:10019800642180314D282B082D02031DD5282A08FB
:1001A8002C02031CD828D928022904308131642163
:1001B80080314D288231CA228031630000008231AB
:1001C800CD22803101308131642180314D282000D9
:1001D8003008A400A5012508003A0319F4284D2881
:1001E8002408013A03199228033A0319B328013A5B
:1001F8000319C628073A0319DE284D284D28262852
:100208002000A101F31F09290A291129F209F3097C
:10021800F20A0319F30AA101A10AF51F14291529E5
:100228001E29F409F509F40A0319F50A0130F60044
:100238007608A106A201A3017208730403192529EF
:1002480026295529A001A00A32290130F235F30DDB
:10025800890B2A290130F6007608A007F31F3529F3
:10026800362929290130A235A30D890B37297308AE
:100278007502031D412972087402031C442945298B
:100288004A297208F4027308F53B22140130F33648
:10029800F20C890B4B290130A002031D5429552962
:1002A80036292108031959295A295F29A209A309BE
:1002B800A20A0319A30A2308F3002208F20008007F
:1002C800F400740820003006031D6B296C296D2981
:1002D800B629AC01AD019B2922008C100C1120001D
:1002E800AC01AD012C08013EAA0000302D3DAB0049
:1002F800B12922008C140C112000AC01AD012C088E
:10030800B03EAA0004302D3DAB00B12922008C106C
:100318000C152000AC01AD012C080A3EAA000030E3
:100328002D3DAB00B12922008C100C11B1297408A5
:10033800F200F3017308003A0319A329B1297208DE
:10034800013A03197029033A03197D29013A03195F
:100358008A29073A03199729B1297408F200720803
:100368002000B0000800F701F801720873040319AF
:10037800BE29BF29EE29F901F90ACB290130F23546
:10038800F30D890BC3290130F6007608F907F31F2E
:10039800CE29CF29C2290130F735F80D890BD0298C
:1003A80073087502031DDA2972087402031CDD291B
:1003B800DE29E3297208F4027308F53B771401304B
:1003C800F336F20C890BE4290130F902031DED29FB
:1003D800EE29CF297808F3007708F20008002200F8
:1003E8008C01383021008C0023008C0124008C0102
:1003F8002100951725008C01373026008C003F30EE
:1004080027008C0022009D0127009312921291165A
:10041800D130F2000230F3008231B02281318B15E5
:1004280008002000990186309700E83096001110E6
:100438001708FB001608FA0021001114D030F2004A
:100448000230F3008231AA22823141302000980024
:100458000800F5007508F400F40DF40D21001D08DE
:100468007406833974069D001D1421009D149D187F
:100478003E2A3F2A3B2A1C08F3001B08F20008000A
:100488008131F32182318231A32282318231C22229
:1004980082318231912282318231C6228231823187
:1004A8001522823108002000181D5B2A5C2A632A65
:1004B800181071089700700896001814672A7108B8
:1004C80097007008960008002000330834040319C8
:1004D8006E2A6F2A742A34088A0033080A00823187
:1004E800270093120800200011107B08F1007A08F9
:1004F800F000823157228231823184228231080011
:1005080020003108320403198A2A8B2A902A3208DB
:100518008A0031080A0082310800D03021009E008C
:100528009F019B019C0101309D0008002700931E3C
:100538009E2A9F2AA22A823168228231080002302C
:1005480021009900980122009601080073082000F4
:10055800B2007208B100080073082000B4007208E5
:10056800B30008002200170E890C890C0139080015
:1005780001302000AC070030AD3D080016302100E6
:10058800970008008130220097000800200018100A
:0C059800080020001814080008000800EB
:020000040001F9
:04000E00643FFF1E2E
:00000001FF
