:020000040000FA
:020000003428A2
:100008007E1480318B1D09280A2812280B1C0D2804
:100018000E2812288131B121803132280B1F152872
:10002800162832282100921E1A281B28242820006E
:10003800921E1F28202824288131E421803132286B
:100048002100111C2828292832282000111C2D28BD
:100058002E28322881318B21803132287E100900E8
:100068003528F001F101F201F301F4017E102000BE
:100078003D28813158218031CD30F7000130F8001A
:100088008131C12180318B170B178131E1218031FA
:1000980001308031D02080318131DA218031003A3D
:1000A8000319572858285B2822000C14B728220067
:1000B8000C10B7288C1E612862287A2871087302F0
:1000C800031D682870087202031C6B286C287128AD
:1000D80002308031D020803150280C1E74287528B9
:1000E800CE2803308031D020803150280430803130
:1000F800D020803150280C1A822883288D28710836
:100108007302031D892870087202031C8C288D282D
:10011800502803308031D020803150288C1E9528FB
:1001280096289B2802308031D020803150287108D1
:100138007302031DA12870087202031CA428A528B5
:10014800CE2804308031D020803150288131DE2102
:100158008031630000008131E1218031013080313C
:10016800D0208031502874082000A400A50125085B
:10017800003A0319C02850282408013A03195E28B8
:10018800033A03197F28013A03199228073A0319F9
:10019800AA28502850283428F90079087406031D25
:1001A800D628D728D8281D29F201F30103292200CF
:1001B8008C100C11F201F3017208013EF0000030BE
:1001C800733DF100192922008C140C11F201F3017E
:1001D8007208B03EF0000430733DF1001929220086
:1001E8008C100C15F201F30172080A3EF000003081
:1001F800733DF100192922008C100C111929790876
:10020800F700F8017808003A03190B29192977082B
:10021800013A0319DB28033A0319E728013A0319BD
:10022800F328073A0319FF2819297908F7007708EE
:10023800F400080022008C01383021008C002300D3
:100248008C0124008C012100951725008C01373082
:1002580026008C003F3027008C0022009D012700DB
:10026800931292129116E830F7000130F8008131AC
:10027800C72181318B15080020009901863097002D
:10028800E830960011101708FB001608FA00210044
:100298001114E730F7000130F8008131C1218131B4
:1002A800413020009800080081311E2181318131C0
:1002B800BA2181318131D22181318131D6218131F7
:1002C8008131A5218131813140218131080020000F
:1002D800181D6F2970297729181076089700750856
:1002E800960018147B297608970075089600080070
:1002F8002000220823040319822983298829230836
:100308008A0022080A008131270093120800200081
:1003180011107B08F6007A08F50081316B218131D4
:100328008131982181310800200020082104031917
:100338009E299F29A42921088A0020080A008131C2
:10034800080021009212803022009100673092004C
:10035800200092122100921608002700931EB5294A
:10036800B629B92981317C21813108000230210068
:100378009900980122009601080078082000A10041
:100388007708A000080078082000A3007708A200DA
:1003980008000130F2070030F33D08001630210054
:1003A80097000800883022009700080022001508EE
:1003B800013908002000181008002000181408004F
:0A03C800200092120800080008004F
:020000040001F9
:04000E00643FFF1E2E
:00000001FF
