:020000040000FA
:020000002628B0
:100008007E1480318B1D09280A2812280B1C0D2804
:100018000E28122881318D21803124280B1F1528A4
:10002800162824282100111C1A281B2824282000FF
:10003800111C1F282028242881315121803124288F
:100048007E1009002728F001F101F201F301F40103
:100058002000A201A3017E10200032288131412115
:1000680080318B170B178030F7000130F800813191
:100078007A21803181318921803101308031B2206B
:1000880080319A288C1E49284A28592871087302F9
:10009800031D502870087202031C5328542859283D
:1000A80002308031B22080319A280C1E5C285D28ED
:1000B8009A2803308031B22080319A280C1A65289A
:1000C8006628702871087302031D6C287008720274
:1000D800031C6F2870289A2803308031B2208031A1
:1000E8009A288C1E782879287E2802308031B22000
:1000F80080319A2871087302031D842870087202DF
:10010800031C872888289A2804308031B22080313F
:100118009A28270091166300000000000B102700A2
:10012800911201308031B22080319A287408200061
:10013800A400A5012508003A0319A3289A28240831
:10014800013A03194628033A03196228013A0319A8
:100158007528073A03198D289A282628F90079085E
:100168007406031DB828B928BA28FF28F201F3013C
:10017800E52822008C100C11F201F3017208023EEE
:10018800F0000030733DF100FB2822008C140C11A4
:10019800F201F3017208B03EF0000430733DF10043
:1001A800FB2822008C100C15F201F30172080A3E9C
:1001B800F0000030733DF100FB2822008C100C1178
:1001C800FB287908F700F8017808003A0319ED28A8
:1001D800FB287708013A0319BD28033A0319C928EF
:1001E800013A0319D528073A0319E128FB287908A9
:1001F800F7007708F400080020009901863097007E
:10020800E830960011101708FB001608FA002100C4
:1002180011148C30F7000130F80081317A218131D6
:10022800413020009800080022008C01393021005C
:100238008C00073023008C0024008C0121009517C6
:1002480025008C01373026008C003F3027008C00B9
:1002580022009D018B1508002000181D342935291E
:100268003C2918107608970075089600181440293C
:1002780076089700750896000800813118218131A9
:1002880081317321813181318521813181316B2126
:1002980081318131002181310800200011107B0853
:1002A800F6007A08F50081313021813181315E21F3
:1002B80081310800200020082104031964296529D8
:1002C8006A2921088A0020080A00813108002100D3
:1002D8009E019F019B019C0101309D000800023096
:1002E8002100990098012200960108007808200052
:1002F800A1007708A00008000130F2070030F33DA4
:100308000800163021009700080020001814080083
:0403180008000800D1
:020000040001F9
:04000E00643FFF1E2E
:00000001FF
