:020000040000FA
:020000001928BD
:100008007E1480310B1F09280A2817282100111C8B
:100018000E280F2817282000111C13281428172829
:100028008131062180317E1009001A28F001F10182
:10003800F201F301F4017E10200022288031F9201A
:1000480080318B170B172D30F7000130F800813104
:1000580027218031813136218031013080317A2069
:10006800803162288C1E39283A2862287108730268
:10007800031D402870087202031C43284428622884
:10008800023080317A20803162280C1E4C284D289D
:100098006228033080317A20803162287108730227
:1000A800031D582870087202031C5B285C2862280C
:1000B800043080317A208031622861287408200059
:1000C800A200A3012308003A03196B28622822081A
:1000D800013A03193628033A03194928013A031942
:1000E8005228073A0319612862281928F900790863
:1000F8007406031D802881289E28B82822008C10A9
:100108000C117208013EF0000030733DF100B42874
:1001180022008C140C11B42822008C100C157208C3
:100128000A3EF0000030733DF100B42822008C1024
:100138000C11B4287908F700F8017808003A031977
:10014800A628B4287708013A03198228033A031924
:100158008C28013A03199028073A03199A28B428D9
:100168007908F7007708F400080020009901863024
:100178009700E830960011101708FB001608FA00DF
:10018800210011143930F7000130F800813127219E
:100198008031413020009800080022008C0139305D
:1001A80021008C00073023008C0024008C012100E2
:1001B800951725008C01373026008C003F3027002A
:1001C8008C0022009D0108002000181DEC28ED2855
:1001D800F428181076089700750896001814F8285F
:1001E800760897007508960008008031D120803184
:1001F8008131202180318131322180318031B92013
:1002080080310800200011107B08F6007A08F500FC
:100218008031E820813181311321813108002000AB
:1002280020082104031919291A291F2921088A00DD
:1002380020080A0081310800023021009900980145
:1002480022009601080078082000A1007708A00085
:1002580008000130F2070030F33D08001630210095
:0C0268009700080020001814080008008F
:020000040001F9
:04000E00E43FFF1EAE
:00000001FF
