:020000040000FA
:020000001928BD
:100008007E1480310B1F09280A2817282100111C8B
:100018000E280F2817282000111C13281428172829
:100028008131162180317E1009001A28F001F10172
:10003800F201F301F4017E10200022288131092108
:100048008031F830F7000030F800813130218031FC
:100058008B17813140218031013080317920803106
:1000680061288C1E38283928612871087302031DFD
:100078003F2870087202031C422843286128023076
:1000880080317920803161280C1E4B284C2861284A
:100098000330803179208031612871087302031D93
:1000A800572870087202031C5A285B2861280430FC
:1000B8008031792080316128602874082000A200EE
:1000C800A3012308003A03196A2861282208013A83
:1000D80003193528033A03194828013A0319512806
:1000E800073A0319602861281928F9007908740665
:1000F800031D7F2880289D28B72822008C100C110A
:100108007208013EF0000030733DF100B328220070
:100118008C140C11B32822008C100C1572081E3E8A
:10012800F0000030733DF100B32822008C100C1150
:10013800B3287908F700F8017808003A0319A528C8
:10014800B3287708013A03198128033A03198B2841
:10015800013A03198F28073A03199928B32879080F
:10016800F7007708F400080020009901863097000E
:10017800E830960011101708FB001608FA00210055
:1001880011144330F7000130F800813130218031FB
:10019800C13020009800080022008C01393021006D
:1001A8008C00073023008C0024008C012100951757
:1001B80025008C01373026008C003F3027008C004A
:1001C80022009D0108002000181DEB28EC28F328C8
:1001D800181076089700750896001814F7287608FE
:1001E80097007508960008000130F2070030F33DCB
:1001F800031022000C1D03140318032906292200EA
:100208000C15082922000C1108008031D0208131FA
:1002180081313621813181313C2181318031B820D1
:1002280081310800200011107B08F6007A08F500DB
:100238008031E7208131813123218131080020007C
:1002480020082104031929292A292F2921088A008D
:1002580020080A008131080078082000A1007708EA
:10026800A0000800210099019801220096010800C9
:100278001630210097000800200018140800080014
:020000040001F9
:04000E00E43FFF3E8E
:00000001FF
